:020000041001E9
:10000000003000305B2C0110312C0110312C01101C
:1000100000000000000000000000000000000000E0
:10002000000000000000000000000000312C011062
:100030000000000000000000312C0110312C0110E4
:10004000312C0110312C0110312C0110312C0110F8
:10005000312C0110312C0110312C0110312C0110E8
:10006000312C0110312C0110312C0110312C0110D8
:10007000312C0110312C0110312C0110312C0110C8
:10008000312C0110312C0110312C0110312C0110B8
:10009000312C0110312C0110312C0110312C0110A8
:1000A000312C0110312C0110312C0110312C011098
:1000B000312C0110312C0110312C0110312C011088
:1000C000312C0110312C0110312C0110312C011078
:1000D000312C0110312C0110312C0110312C011068
:1000E000312C0110312C0110312C0110312C011058
:1000F000312C0110312C0110312C0110312C011048
:10010000312C0110312C0110312C0110312C011037
:10011000312C0110312C0110312C0110312C011027
:10012000312C0110312C0110312C0110312C011017
:10013000312C0110312C0110312C0110312C011007
:10014000312C0110312C0110312C0110312C0110F7
:10015000312C0110312C0110312C0110D12B011048
:10016000312C0110312C0110312C0110312C0110D7
:10017000312C0110312C0110312C0110312C0110C7
:10018000312C0110312C0110312C0110312C0110B7
:10019000312C0110312C0110312C0110312C0110A7
:1001A000312C0110312C0110312C0110312C011097
:1001B000312C0110312C0110312C0110312C011087
:1001C000312C0110312C0110312C0110312C011077
:1001D000312C0110312C011000F002F800F0B5F8BC
:1001E0000CA030C8083824182D18671EA246AB464C
:1001F00054465D46AC4201D100F0A7F87E460F3E62
:10020000B6460FCC0126334200D0FB1A3343A24638
:10021000AB461847C8A00000E8A000000023002457
:1002200000250026103A01D378C1FBD8520700D32D
:1002300030C100D50B60704710B56E2902D100F0B7
:100240002BFF10BD702902D100F0F3FA10BD662912
:1002500002D108F0A3FE10BD652902D108F09EFE70
:1002600010BD672902D108F099FE10BD612902D1A5
:1002700008F09CFE10BD03681B0A01D380231943BC
:10028000692902D100F028FA10BD642902D100F0DA
:1002900023FA10BD752902D100F01EFA10BD6F2996
:1002A00002D101F0DBF910BD782902D100F0AEFADD
:1002B00010BDE92902D100F045FA10BDE42902D1B0
:1002C00000F040FA10BDF52902D100F03BFA10BD54
:1002D000EF2902D101F0CEF910BDF82902D100F0CA
:1002E000A3FA10BD0368DB0901D3802319436329F6
:1002F00002D101F012F910BD732902D101F015F9F4
:1003000010BDE32902D101F0B0FE10BDF32902D1E6
:1003100001F0B3FE10BD002010BD1FB5009801997B
:1003200000F0DFFD00F0C0FD04000020002108F017
:1003300009FE401C60600020002108F019FEE0600A
:1003400001F05EFB00F098FD1FBD0648854603B432
:1003500005F0B6FF03BC02F07DFA02F085FA06F064
:1003600069FA00000030003070B505460C461646AC
:1003700002E00FCC0FC5103E102EFAD2082E02D389
:1003800003CC03C5083E042E07D301CC01C5361F9C
:1003900003E021782970641C6D1C761EF9D270BDB3
:1003A0007046F0477047000010B500F07DFD001D5D
:1003B00010BD00BF918B000000487047283300300B
:1003C00070B508F079FD0123044600221B07C01A0E
:1003D000914101D3002070BD204600F007F80500D0
:1003E00002D0214600F0FCFC284670BD70B50646E0
:1003F00000F056FD056830460B30C408E400B442F6
:1004000001D8002070BD68682A46002818D001680D
:10041000A14211D30B46214608318B4208D34368D1
:1004200001194B6003681B1B0B605160046001E005
:1004300041685160001D70BD024640680028E6D149
:100440002146284600F038FD0028DCD170BD70B58B
:100450000446051F00F024FD0068002C1AD04468F3
:1004600001E020466468002C01D0AC42F9D3016859
:100470000A18AA4204D12A6805468918016000E0DA
:10048000456028684119A14205D161686960216809
:100490004018286070BD6C6070BD10B5202A04DB68
:1004A0000146203A9140002010BD914020239C1A23
:1004B0000346E3401943904010BD10B5202A04DBE9
:1004C0000846203AD040002110BD0B462024D340DE
:1004D000D040A21A91400843194610BD43435143EE
:1004E00030B55C18010C130C0D4692B25D4380B21E
:1004F00051432C19054655430A0C09044D19624114
:100500005843010C00044019514130BDFEB5054669
:1005100010460C46184373D0AE468C460020AD1AE8
:1005200001469C4167D36646002701243D46B61A22
:100530009D4102D313463A462124654676462F0450
:10054000360C3E432D0CB61A9D4104D3150C1B04EA
:100550002B4312041034654676462F06360A3E4376
:100560002D0AB61A9D4104D3150E1B022B4312020D
:100570000834654676462F0736093E432D09B61ADC
:100580009D4104D3150F1B012B431201241D654609
:100590007646AF07B6083E43AD08B61A9D4104D370
:1005A000950F9B002B439200A41C65467646EF07EF
:1005B00076083E436D08B61A9D411AD392185B41E6
:1005C000641C16E00018764665464941B71A9D41FD
:1005D0000191009009D36046B11A98418E46844635
:1005E000009801990025401C6941DD0752082A4303
:1005F0005B08641EE6D57246634603B0F0BDFFE7B4
:1006000000200146C046C0462A462346F5E710B5FD
:100610000B460146184600F08DFF10BD0FB405498A
:1006200010B503AA029800F085FF10BC08BC04B006
:10063000184700008033003070B5044685690068B3
:10064000C10601D5302600E02026C00707D070BDC6
:1006500062683046A1689047206A401C20626D1E87
:10066000F6D570BD70B5044685690078C00707D11E
:1006700070BD6268A16820209047206A401C2062FB
:100680006D1EF6D570BD70B50C460546012A05D025
:100690002878800600D5EA69002302E0012305E0FE
:1006A0005B1C934202D2E05C0028F9D1A869E618ED
:1006B000C01AA861286AC01828622846FFF7BCFF44
:1006C00004E06A682078A968641C9047B442F8D3B3
:1006D0002846FFF7C7FF70BDF7B5002575291068DC
:1006E000009914A611D000F06DFC002802DA4042F7
:1006F00011A608E0009909688A0701D50FA602E053
:10070000490704D50EA6012501E000F064FC009F16
:100710000024243704E001F0BEFA30313955641C5E
:100720000028F8D12B4632462146009800F05CFCA8
:10073000FEBD0000000000002D0000002B000000A6
:1007400020000000F7B5D21D0025D20815A6D20062
:10075000F52905CA11D0002A05DA0021404291414D
:1007600011A60A4608E0009909688B0701D50FA673
:1007700002E0490701D50EA601251146009F00247D
:10078000243704E000F0E1FB30323A55641C0246A5
:100790000A43F7D12B4632462146009800F024FC4C
:1007A000FEBD0000000000002D0000002B00000036
:1007B00020000000F8B50F460188090502D5224C3B
:1007C0007C4402E0204C7C440E3405460021243554
:1007D00008E016071209360FA65D6E541E07324355
:1007E0001B09491C16461E43F3D1224604780023F8
:1007F000240705D5702F06D0002901D0022311321D
:1008000000F0F2FBF8BD01231032F9E770B50446A1
:100810000D462146106800F0DEFB00230246294603
:100820002046FFF7C7FF70BDD21DD308DB000CCBFD
:10083000C0E730B403682024126823430360082310
:10084000C36130BC0023B5E7F8870000F3B5044668
:10085000002081B020622046E1688847002872D0DD
:10086000252802D06268A168ABE0594F00267F447A
:100870002046E16888472028054608DB312D06D24E
:10088000781920380078002801D00643F0E7B00737
:1008900001D5042086430020E0610746A0612A2D8F
:1008A0000AD0284608F038FB002827D0B8000019E5
:1008B000303D0090856119E00298BA00121902C813
:1008C000916102902046E1688847012F054617D1C3
:1008D000E06900281FDA202086431CE000980A21E6
:1008E0008069484300994019303888612046E168A2
:1008F0008847054608F010FB0028EFD1012F0AD0E9
:100900002E2D08D12046E168884705462020064361
:100910007F1C022FC3DBA069002803DA4042A061DC
:1009200001200643F00701D0102086436C2D0BD028
:10093000682D09D04C2D3CD06A2D38D0742D38D07C
:100940007A2D36D016E040E0E1682F4620468847F1
:10095000B842054609D16C2F29D001208002E168F8
:10096000064320468847054604E06C2F1DD0FF2033
:1009700001300643002D28D028464138192803D8D5
:100980000120C00206432035204626602946029AEF
:100990001646FFF751FC002810D001280BD0F61D99
:1009A000F008C0000830029055E74020E1E78020C1
:1009B000D5E70020D3E7361D02964CE7626828464B
:1009C000A1689047206A401C44E7206AFEBD0000F1
:1009D00072870000F8B5044616460D464769007B4D
:1009E000800730D0384605F094FC00282BD13246E1
:1009F0001026002A25D0012A02D0022A23D104E0A1
:100A0000204600F03DFF45191BE0384605F06FFC1D
:100A1000E16831430028E16004DA204600F078FF05
:100A20000120F8BDC9030BD56268E16A914200D884
:100A30001146A26989182269891A814200DD084697
:100A40002D18002D01DA0220F8BDE16A6068E26825
:100A5000814206D29103E06203D5012149048A4311
:100A60003243A669AE4211DCE16A814201D90B46EC
:100A700000E003469F192369FF1AAF4206DD814259
:100A800001D90F4600E007469F4206D120200243CD
:100A90000020A060A56220600DE0AD1BE669AE1BE2
:100AA0008142A66000D90846C01A281A2060581949
:100AB000606020208243034802400020E26040340E
:100AC0002072F8BDBFCFD7FF10B5024908F02BFA4E
:100AD00010BD00008033003010B5044603E008F07C
:100AE00022FA401C08D020780549641C0028F6D161
:100AF0000A2008F018FA10BD0020C04310BD000005
:100B000080330030F7B516460C46104600F06EF8FC
:100B10002078611C61280AD0722802D0772839D148
:100B200002E00125002404E00225042401E02D4D0B
:100B300008240222032301270878491C2B2806D009
:100B4000622807D02039C87F742807D008E01D43E9
:100B50001443F1E7042005433C43EDE71020044330
:100B60000098214605F0D8FB411C13D000213161CB
:100B700071600121F5604902F1617061200704D5BF
:100B8000304602220021FFF725FF306D38433065E3
:100B90003046FEBD0020FEBDF8B50D460646124C9F
:100BA000206DC10704D0410804D044086400F7E771
:100BB000224610E05420FFF719FC070010D07908F6
:100BC000206D490001221143084354212065384615
:100BD00000F008F93A4629463046FFF793FFF8BD82
:100BE0000020F8BD028000002C330030FEB5044622
:100BF000466900690F4F0190E56800200090A80742
:100C000007D0204600F0B4FE304605F06DFB00280A
:100C100001DA3846FEBD280502D50198FFF717FC1A
:100C20004C21204600F0DEF8206D40084000206591
:100C30000098FEBDFFFFFFFF30B503461D78002D75
:100C400008D00A461478521C002C03D0AC42F9D1CB
:100C50005B1CF3E7181A30BD034610B50B439B0726
:100C60000FD1042A0DD308C810C9121FA342F8D00F
:100C700018BA21BA884201D9012010BD0020C04312
:100C800010BD002A03D0D30703D0521C07E0002078
:100C900010BD03780C78401C491C1B1B07D103783E
:100CA0000C78401C491C1B1B01D1921EF1D1184627
:100CB00010BD000030B5441C03E00178401C002941
:100CC0000DD08107F9D10B4BDD0104C8D11A914336
:100CD0002940FAD0001B0A0603D0C01E30BD001BFD
:100CE00030BD0A0401D0801E30BD0902FCD0401E78
:100CF00030BD000001010101F8B5042A2CD383079F
:100D000012D00B78491C0370401C521E83070BD075
:100D10000B78491C0370401C521E830704D00B78CB
:100D2000491C0370401C521E8B079B0F05D0C91A2B
:100D3000DF002023DE1B08C90AE0FFF715FBF8BD22
:100D40001D4608C9FD401C46B4402C4310C0121F6C
:100D5000042AF5D2F308C91A521EF0D40B78491CA4
:100D60000370401C521EEAD40B78491C0370401CCF
:100D7000012AE4D409780170F8BD134610B5044681
:100D8000CAB219461002821810048218204600F0D8
:100D900018F8204610BDD2B210B513029A181304E9
:100DA0009A1800F00EF810BD01E004C0091F0429D4
:100DB000FBD28B0701D50280801CC90700D00270CE
:100DC000704700290BD0C30702D00270401C491E97
:100DD000022904D3830702D50280801C891EE3E721
:100DE0000022EEE70022DFE7024670B50A439207D1
:100DF0002AD11E4DEE0104C808C9541B9443344047
:100E000017D0D0B2D9B2401A2106014310D190B206
:100E100099B2401A210401430AD110021902000AB2
:100E2000090A401A2102014302D1100E190E401A7C
:100E300070BD9A42DFD010BA19BA884201D9012098
:100E400070BD0020C04370BD02780B78401C491C67
:100E5000002A09D09A4207D102780B78401C491C1D
:100E6000002A01D09A42EFD0D01A70BD01010101D1
:100E7000704770477047000070B5064C7C44064DC3
:100E80007D4403E0206800198047241DAC42F9D15D
:100E900070BD0000A8950000AC95000070470000F0
:100EA0000048704728340030004870472C34003028
:100EB000704770477047704738B504460A460020AF
:100EC0006946C046C046002805D002462046009923
:100ED00000F0F5FE012038BD10B5012001F025FC21
:100EE00010BDF8B5C046C046054600200C4610208F
:100EF000C0460646A819A0420DD9324669460020D0
:100F0000C046C046070001D101F00FFC0098A04286
:100F100000D00546C419FFF7C3FFF61D074605605C
:100F2000F008C0004619284600F008F8B44204D082
:100F300031463868A21B00F0C2FEF8BD00210160F6
:100F4000416080607047102070470B4670B50246C4
:100F500089078008084319469D08141AA9412509E4
:100F60000807054308092C194841250A01060D43C5
:100F7000010A2C194141200C0D0428430D0C0019C5
:100F80004D41002140194D41C00869070843E90857
:100F9000840F8D002543840024184D4124196D4190
:100FA000121BAB4107E00925ED432C115219634197
:100FB0000024401C61411C460A250026551BB441F3
:100FC000F1D270BD09684A0501D540B27047C90524
:100FD000FCD500B2704709684A0501D5C0B2704718
:100FE000C905FCD580B27047FFB504460D4681B0F7
:100FF000243000902168880604D51022E0699143CE
:10100000216000E00120A84201DD471B00E000272D
:101010000498A1697A191018081AA0612078C006EE
:1010200002D42046FFF708FB002608E00398626818
:10103000A168805D9047206A401C761C206204985D
:101040008642F3DB2078C0060AD52046FFF7F4FA83
:1010500006E06268A16830209047206A401C206248
:1010600038467F1E0028F4DC07E000986268A1681B
:10107000405D9047206A401C206228466D1E002873
:10108000F3DC2046FFF7EEFA2078000602D50220B6
:1010900005B0F0BD0120FBE711680268006A530546
:1010A00001D5087009E0D30501D5088005E01306D5
:1010B00002D5C21705C100E008600120704700009A
:1010C000FFB50C461E468FB003CA089009914F0029
:1010D0007D0D00D16D1E002108460020C046032171
:1010E000099A89050840002A03DA8200801840081E
:1010F0000840800D01280A9002DD0020C0430A90BC
:10110000089807430DD0F048F049281848430714C1
:10111000189800281DD07542291E1DDD0A984242EC
:101120001BE01898012802D00020302104E00020A4
:10113000F24305E02154401CB042FBDB3046002264
:10114000189B002121540F998B600A60486013B0EE
:10115000F0BDBD1B6D1CDFE70A9A002900DA694269
:101160000BA800F08FFF0BAB07CB03AB07C30899AD
:10117000099800F0F3FF6B4607C30146D4480918ED
:10118000002D00910BDDD24903980A9A494240187C
:10119000002303A90390684601F050FA08E0039980
:1011A0000A9A0023081803A90390684601F0F0F991
:1011B0006B4607C30004000C03D00020C043410865
:1011C00000E01046189A002A03D00022009215462B
:1011D0001EE0751E05D4FFF7B8FE303262556D1E55
:1011E000F9D501220843079602D000227F1C04E0B3
:1011F0002078302801D100227F1E002A069787D050
:101200001EE0112D07DAFFF7A0FE303262556D1C8B
:1012100002460A43F5D1084303D00098002819D0AC
:101220000EE00021681E05E0235C625C63542254DA
:10123000401E491C8142F7DBA81B401E0795069003
:10124000079A18990020A0540F98079B069A81606E
:101250000CC07CE711260020189059E7D21DF0B58C
:101260000D460446D10893B0C90003C90C900D91F6
:1012700007F03CFE02460D98C00F01D02D2007E07C
:101280002068810701D52B2002E04007C00F4001F4
:10129000032A0F9001D0072A05DB03462946204682
:1012A00000F094FE0EE12078800601D5E76900E0A9
:1012B00006272846652D04D0662814D0672D69D1ED
:1012C0002DE00020112F009001DB112300E07B1C9A
:1012D0000CAA03A910A8FFF7F3FE11990026109895
:1012E0007D1C0E9142E001203B460CAAC0070B90EA
:1012F0000120009003A910A8FFF7E2FE119D1298AB
:101300001099002600280E9501D1781C0D18781B25
:1013100002D446427D1C761EE81B00903AE0012F65
:1013200000DA01270020112F009001DD112300E0D9
:101330003B460CAA03A910A8FFF7C2FE11993D462F
:10134000109800260E91217809070BD40E99A94216
:1013500000DA0D4603A9012D04DD4A19203AD27F97
:10136000302A06D0B84201DA011D04DA01210091C9
:101370000FE06D1EEFE7002802DC86192D1A03E04E
:10138000411CA94200DD0D46801B401C009001203D
:10139000C0070B902078000705D40098A84202DB14
:1013A0000020C043009069460020C8720B980121BC
:1013B00002AF0337C907884225D0022010902B20A6
:1013C00011900B9800280BDA40420B902D201190C1
:1013D00006E00B9800F05FFC30317F1E0B903970F7
:1013E0001099481E00291090F3DC0B980028F0D1CA
:1013F00011987F1E38702088000501D5452000E037
:1014000065207F1E387001A8C01BC01D0B900F986F
:10141000002800D0012041190098C01709180B9826
:101420000818A169081A401EA0612078C00602D4DD
:101430002046FFF701F90F98002805D06268A168DF
:101440009047206A401C20622078C00625D520469F
:10145000FFF7F2F821E0002E07DB0E98B04204DD22
:1014600003A86268805DA16802E06268A16830201C
:101470009047206A761C401C20620098401E00287D
:1014800000900AD1FFF710FDC06862680168405CF7
:10149000A1689047206A401C206228466D1E0028E3
:1014A000D9DC07E062683878A1687F1C9047206A21
:1014B000401C20620B99481E00290B90F2DC20464C
:1014C000FFF7D0F8032042E601FCFFFF104D0000BB
:1014D000E1DFFFFF01694A1C02610878704700B52F
:1014E0008FB0029100210591054901937944039140
:1014F000114604906846FFF7A9F90FB000BD00003F
:10150000E5FFFFFF10B54369002B02D0C046C0467F
:1015100001E0FFF7B8F8012010BD12780146243130
:101520000A7000224A700122ECE711680022D243BF
:10153000E8E70000084B70B50D467B44FFF7CFFF8E
:101540000446284600F0A0F8002802D00020C0433E
:1015500070BD204670BD0000E9790000F7B5044673
:10156000154686B02B487844002703C83E460090B5
:10157000019111E007986A467100415A02A801F0F2
:10158000ADF8411C07D02178890603D5E2693918E6
:1015900091420ED83F18761C2078800602D5E0696B
:1015A000B84206DDAE42E5DB07987100405A0028DC
:1015B000E0D1A069C01BA0612046FFF73DF81548A7
:1015C00078445A3803C800900020019116E0410089
:1015D0006A460798415A02A801F080F80590401C1D
:1015E0000AD0002505E0626802A8A168405D904726
:1015F0006D1C05988542F6D30498401CB0420490B7
:10160000E5DB206AC01920622046FFF72BF809B0FD
:10161000F0BD00008E7A000070B50446002124342D
:1016200008E05507D2086D0F303565545D072A4331
:10163000DB08491C15461D43F3D10468002310A2A2
:10164000250708D520252C400C4304D0C46901236C
:101650000CA2641EC461FFF7C7FC70BD10B5044640
:1016600021461068FFF7B7FC002302462046FFF72B
:10167000D3FF10BDD21DD108C9000CC9CCE70000B2
:101680000000000030000000C06880210840704762
:10169000F8B505460C46C8680521C90488430121F0
:1016A00089050843E060800602D5204600F086F9EF
:1016B0007149E0680140022903D0204600F028F972
:1016C000BCE00521012249030140D20391420FD120
:1016D000C00306D56168E06A884200D808466060A9
:1016E00006E02069E0626060606904F000FEA061CD
:1016F000A1680022EEB200290EDAE06883050BD45F
:10170000C943A1600921226049030843E060606881
:10171000411C61600670ACE0E068012149030843A8
:10172000E060002020602069002831D1606904F069
:10173000F0FD012527462437ED02002816D0A089A8
:101740008005800F08D0E069FEF750FE0028206178
:1017500002D0E068284318E001202761E061E068DA
:10176000032109028843012189020DE0E069FEF7A7
:101770003DFE00282061EFD0E0682843E06081054D
:10178000890F03D1FF2101310843E06020696060C7
:10179000E2683A4F2569D0051FD56168E06A884242
:1017A00000D80846411B05D02246284600F0BAF86A
:1017B000002843D1E068010204D5E562002065609D
:1017C000A06053E0691CE1626160E169491E384331
:1017D000A160E06030462E70F8BD100201D53A409D
:1017E00009E06068411C61600670E06838430A2EB9
:1017F000E06006D00022E16A6068814203D90B46AE
:1018000002E00122F7E70346A7895B1B7F0504D4AA
:10181000E7699F4201DD002A1ED0814200D80146BF
:101820000F1A0020E5626560002BA06009DD2246EA
:101830001946284600F076F8002802D00020C04360
:10184000F8BD002F08D0A069E5626560C01BA061EB
:10185000E06810210843E060E068000209D5616893
:10186000A069E562491B40186560A0610120C04382
:10187000F8BD3046F8BD00008210000000000100F5
:1018800010B50146C268900703D0900607D5886A54
:101890000AE0FEF791FD01210160881E10BD8B69F1
:1018A0004868C0180B69C01A40310B7A002B02D06F
:1018B000497A401A10BD1103FCD50028FADD401EFC
:1018C00010BD000070B5C468A50713D0650211D41F
:1018D000D51FF93D0AD0FF3D6D1E07D0FF3DFF3DEE
:1018E000022D07D101462431012305E0074E5D1E7C
:1018F000B54201D3012070BD0161C36141600F2178
:1019000009028C431443C460002070BDFFFFFF0038
:10191000C1688022114392039143C160002181601C
:1019200001607047F7B514460E463348D5685769CD
:10193000054209D03846A16904F03AFD002811DBC0
:101940002D48C0430540E5602B4632463846009995
:1019500004F031FD4200A1695208B21A891800282A
:10196000A16104D02046FFF7D3FF0020C043FEBD95
:1019700070B504460569C06A6168884200D80846A7
:10198000E1680522D2049143E160C90314D5A8425D
:1019900009D02246411B2846FFF7C4FF002802D089
:1019A0000020C04370BDE56200206560A060E06873
:1019B000012109048843E060002070BD10B5044691
:1019C000C06820218843E060A16AA06988420ED0E7
:1019D0002046FFF7CDFFE06803210903884310216B
:1019E0000843E060A06AA0612069E062606003498A
:1019F000E0680840E06010BD10000200BFBFFFFFBC
:101A000010B543485421FFF7EDF942485421FFF740
:101A1000E9F941485421FFF7E5F940483C493D4B7D
:101A2000404A01603E4803603B4810605A1C0A650A
:101A3000411C1965012101653C48354A3AA17844A9
:101A4000FFF760F8002804D1384878440C3800F0DB
:101A500066FE38482F4A36A17844FFF753F800282D
:101A600004D1344878440C3800F059FE32482A4AF0
:101A70002FA17844FFF746F8002804D12E48784477
:101A80000C3800F04CFE40232148DC0000212246A7
:101A9000FFF718FF002804D0244878445C3800F091
:101AA0003EFE1C48224640230021FFF70BFF002882
:101AB00004D0204878445C3800F031FE16482246B5
:101AC00010230021FFF7FEFE002804D01A487844B6
:101AD0005C3800F024FE10BD0F4870B5006D44085E
:101AE0000B486400FFF782F80A48FFF77FF80A48BE
:101AF000FFF77CF809E0206D450820466D00FFF7F0
:101B000075F82046FEF7A3FC2C46002CF3D170BDDF
:101B10002C33003080330030D4330030E0310030DB
:101B2000E4310030E831003072000000827E0000B5
:101B3000770000006F7E0000467E0000002203094F
:101B40008B422CD3030A8B4211D300239C464EE0D8
:101B500003460B433CD4002243088B4231D3030994
:101B60008B421CD3030A8B4201D394463FE0C30946
:101B70008B4201D3CB01C01A524183098B4201D35E
:101B80008B01C01A524143098B4201D34B01C01A49
:101B9000524103098B4201D30B01C01A5241C308C1
:101BA0008B4201D3CB00C01A524183088B4201D330
:101BB0008B00C01A524143088B4201D34B00C01A1C
:101BC0005241411A00D201465241104670475DE031
:101BD000CA0F00D04942031000D3404253409C46F4
:101BE000002203098B422DD3030A8B4212D38901B1
:101BF000FC2212BA030A8B420CD3890192118B4248
:101C000008D3890192118B4204D389013AD09211F1
:101C100000E08909C3098B4201D3CB01C01A5241AC
:101C200083098B4201D38B01C01A524143098B4275
:101C300001D34B01C01A524103098B4201D30B015E
:101C4000C01A5241C3088B4201D3CB00C01A524183
:101C500083088B4201D38B00C01A5241D9D243086A
:101C60008B4201D34B00C01A5241411A00D20146A7
:101C70005241104663465B1001D34042002B00D511
:101C80004942704763465B1000D3404201B50020D3
:101C9000C046C04602BD01468008081A0209101855
:101CA000020A1018020C1018C00882001218520004
:101CB000891A01E0401C0A390A29FBD2704710B585
:101CC0000346406801E003464068002801D088428E
:101CD000F9D31868C3188B4206D0CB1CD808C000B3
:101CE000001D411A521A0146081D0A60FEF7AFFB9B
:101CF00010BD0000D21DF0B504460D46D0088DB0D1
:101D0000C000466807683146384607F0EFF80246DB
:101D1000F00F01D02D2307E02068810701D52B2388
:101D200002E04007C00F43016846002B037001D05A
:101D3000012000E00020032A0A9001D0072A04DBDA
:101D40002946204600F042F92DE12078800601D492
:101D50000D2500E0E5697000400D0D2D01904BDA76
:101D6000300D00210B9008460020C0460321890554
:101D70000840002E05DA82008018C20F10184010AB
:101D800008408015012801DD0020C043A900002380
:101D9000182906D39C460A460123183A1B07D3404C
:101DA00003E001221205CA4094460C31202902D3D7
:101DB0003A46203900E032468A40002802DD002AF7
:101DC00006D119E0002817D10121C9078A4213D38F
:101DD000194663467F185E41002806D10120C007DE
:101DE000824202D1084687439E430B98310D8142BF
:101DF00002D00198401C01902088000502D571494D
:101E0000794402E06F49794419396B460A983022C7
:101E10001A540A980A7C401C1A54401C0A900198D3
:101E2000002801DC302000E031201872019A0120E6
:101E3000002A02D0644BD21804E072003A4302D068
:101E4000614A521C0192002D02DC2278120703D550
:101E50006A462E20507202200022864694460CE0EC
:101E600032033601120F6D1E8B5C02AA13546246B8
:101E7000521C401C9446052A01DA002DF0DC002299
:101E800002AE08E03B0F3F01CB5C521C6D1E335489
:101E9000401C082A01DA002DF4DC23689A0601D5DB
:101EA00011E0401E704504DD3218203AD27F302AFE
:101EB000F7D0002807DD3218203AD27F2E2A02D12F
:101EC0001A0700D4401E002D03DD3E223254401C70
:101ED0006D1E497C31540199401C002906DA2D21E0
:101EE000471C315401984042019003E02B21471CCC
:101EF000315401987D21C900884206DBFFF728FE96
:101F00003030F0557F1C019101E0642808DB019816
:101F10006421FFF71DFE3030F0557F1C019101E078
:101F20000A2806DB01980A21FFF712FE3030F0552F
:101F30007F1C01980A21FFF70BFE3031F1550A98FA
:101F4000A1697F1C7A191018081AA0612078C006B0
:101F500002D42046FEF770FB216A6E460A980818E4
:101F6000206204E062683078A168761C90470A9885
:101F7000401E0A90401CF5D12078C00602D52046AC
:101F8000FEF75AFB02AE09E03078761C3E280DD0F1
:101F90006268A1689047206A401C20627F1EF3D2CD
:101FA0002046FEF75FFB0DB00320F0BD206A40190C
:101FB000206203E06268A168302090476D1EEDD377
:101FC000F8E700000F72000001FCFFFFF8B51F46A4
:101FD000044601230068DB02032601461840072A55
:101FE00005DB002801D017A506E017A504E00028AE
:101FF00001D016A500E016A5102081432160A0693C
:10200000C01E002FA06101D0401EA0612046FEF737
:1020100013FB002F09D038466268A1689047206AF8
:10202000401C2062C01C206206E0206AFAE7626859
:102030002878A1686D1C9047761EF8D22046FEF7DE
:1020400011FBF8BD4E414E006E616E00494E4600D8
:10205000696E660010B54369002B02D0C046C046C9
:1020600001E0FFF77BFA012010BD12880146243100
:1020700082840022C2840122ECE711680022D2434C
:10208000E8E70000F7B516468AB0334878446C4656
:1020900003467C33C06F5A689B680DC42E48784451
:1020A000763003AC0DC80DC43720C00108183721A5
:1020B0001B30FFF74DFD05460C46803D1B3C02D50D
:1020C0006442012000E000200027099010E0E007B2
:1020D0000CD00C2020497843794432464C394118C1
:1020E0006846012300F054FA6B4607C364107F1C56
:1020F000002CECD1184F7F442E3F16E0E80712D099
:102100002001C0190EC80691089307920068F0429A
:1021100001D1981908903246012306A903A800F0BE
:1021200037FA03AB07C36D10641C002DE6D1099884
:10213000002806D032466946012303A800F07EFA43
:1021400005E001233246694603A800F021FA0A9B04
:1021500007C30DB0F0BD0000986F000003464000BB
:102160000A4610B5400D0BD00121C9070F24A40267
:1021700000191C0364082143540D2143D20207E0D7
:1021800000210120F2E7D40F490021435200401EF4
:102190000029F8DADB0FDB07184310BDFFB50D4649
:1021A000144685B04868516806F086FE009101909B
:1021B000A868A16806F080FE02910390A868616893
:1021C00006F07AFE029A12188242029201D201208F
:1021D00000E00020019A0B18D2180028019202D0CA
:1021E0008A4202D903E08A4201D2012000E00020A5
:1021F0000099081800906868A16806F05DFE029AD0
:1022000012188242029201D2012000E00020019ABD
:102210000B18D2180028019202D08A4202D903E09A
:102220008A4201D2012000E00020009908180090A5
:102230002868216840004900400849084018FA49C8
:10224000471814E001994000C90F08430090019815
:1022500002994000C90F0843019002980399400079
:10226000C90F08430290039840007F1E0390009816
:102270000028E7DA0898002801D0EC4E00E000269C
:10228000B74201DA012000E00020002804902AD0A3
:10229000F71BF806C00E15D0029B2021091A039ADD
:1022A0008B401A430392029A019BC2408B401A430F
:1022B0000292019A009BC2408B4000991A430192FE
:1022C000C14000917B110DD06F460320C11A03D588
:1022D00000218200B95003E08A008100BA587A5088
:1022E000401EF3D5374603980299002800D00120FC
:1022F000014308980291002808460CD0002800D01D
:1023000001200199019A490508430121D20AC90215
:10231000D202019200E001210E9B0122D207012B83
:1023200002D0002B03D013E0002807D120E0904218
:1023300004D890420CD1019B0B4209D0019B591843
:10234000019105D10099491C009101D17F1C009297
:1023500000280DD0102108460020C046049800280F
:1023600006D00F98002803D0082108460020C04658
:1023700028682168019B009A4840C10F0598C90749
:1023800039430EC009B0F0BDFFB587B0099A08986F
:1023900008995368926840688968964600220393BA
:1023A00017469446089A12685300099A5B08126807
:1023B000520052089A1A9E4BD4180A9A002A01D049
:1023C000352200E0402206920022012315460492A5
:1023D000DB07059324E0002D05D175460346039ED7
:1023E0004D1BB34109D375466646039B491B049DAB
:1023F0009841059B7519AC465F4163463B4308D045
:10240000059B049EDD0776082E435B080496059322
:1024100001E0521E641EC50FED0749184041521CD1
:10242000069B9A42D7DB002D04D17546039A6B1A9E
:10243000824101D203200CE0039A0B466B404240DC
:10244000134303D0014303D0012002E0022000E047
:102450000020614601910021009702910A9900290C
:1024600005D0614640020143704B019102E08007B4
:10247000002302909C4201DA012000E000200700C6
:102480003AD01A1BD006C00E15D0029D2021019C07
:10249000091AC5408C402543029C8C4000D0012481
:1024A0002543019C0295009DC4408D4000992C431A
:1024B0000194C140009154111DD06D4602210022AB
:1024C00002290CD10320001B07E0002804DB860052
:1024D000AE59002E00D00122401C0328F5DB081B5A
:1024E00002D588002A5004E08000285810438A0052
:1024F000A850491EE3D51C460A98002802980CD023
:10250000002800D001200199019A490508430121C2
:10251000D20AC902D202019200E00121109B0122DD
:10252000D207012B02D0002B03D013E0002807D1E3
:102530001FE0904204D890420CD1019B0B4209D07D
:10254000019B5918019105D10099491C009101D1B5
:10255000641C009200280CD0102108460020C046C0
:10256000002F06D01198002803D00821084600202B
:10257000C04608980999019A009B0068096848407C
:10258000C10F0798C907214382600AC00BB0F0BD94
:1025900000B585B0019300920A460146002302A8C7
:1025A000FFF7FCFD02A807C805B000BDFFB50A464D
:1025B0001F4685B00799019301230091014602A8A7
:1025C000FFF7ECFD02990398049ECA0F4900D20759
:1025D00000920F22490892028C1A0021002800DB89
:1025E0000C46450013486D08844214D3079A002A0C
:1025F00004DA441E0026104DF64302E004460D4660
:102600000E46102108460020C046002F03D00421AA
:1026100008460020C0462005E90A084300990843FF
:102620006905F20A1143ADE602C0FFFF013C00005C
:10263000FF3F0000FF070000FFFFFF7F00B585B0F0
:10264000019300920A460146002302A8FFF79CFE70
:1026500002A807C8A8E7FFB50A461F4685B0079934
:10266000019301230091014602A8FFF78DFE029914
:102670000398049ECA0F4900D20700920F2249080E
:1026800092028C1A0021002800DB0C4645001148FC
:102690006D08844214D3079A002A04DA441E0026E7
:1026A0000D4DF64302E004460D460E461021084645
:1026B0000020C046002F03D0042108460020C04659
:1026C0002005E90A0843009908436905F20A114305
:1026D00058E60000FF070000FFFFFF7FF8B5164631
:1026E0000C460546FDF760FE0368FF200230C05C23
:1026F000012807D0FF2C0FD8185D00280CD001202E
:102700002C70F8BDFF333246214608331868C718CD
:1027100028460023B847F8BD0020C043F8BD10B5D7
:1027200000F010F800F007F810BD10B500F024F824
:1027300000F001F810BD10B5002801D003F0D6FD5F
:1027400010BD000010B5014602A000F03DF80120C8
:1027500010BD000053494752545245443A20526537
:102760006469726563743A2063616E2774206F70C8
:10277000656E3A200000000010B5012805D0002148
:1027800003A000F021F8012010BD09A1F8E7000026
:1027900053494752544D454D3A204F7574206F664A
:1027A0002068656170206D656D6F727900000000B2
:1027B0003A2048656170206D656D6F727920636F96
:1027C000727275707465640070B505460C460A2017
:1027D00000E06D1C03F008FE002D06D028780028CC
:1027E000F7D102E0641C03F0FFFD002C02D020783A
:1027F0000028F7D10A2003F0F7FD70BD70B58C18E2
:102800000578401C6B075B0F01D10378401C2A112F
:1028100006D10278401C03E00678401C0E70491C6B
:102820005B1EF9D12B0705D40023521E0DD40B706B
:10283000491CFAE70378401CCB1A921C03E01D7870
:102840000D70491C5B1C521EF9D5A142D8D3002043
:1028500070BD0000024903484118FDF75EBDC04647
:10286000A0040100607B003080B504F0F9FB80BC5F
:1028700001BC864604F004BA04F0F4BBB0B50446CB
:1028800060B1204600F04CF90546204600F0A2F861
:10289000284381B2042001B90846B0BD0220B0BD72
:1028A00020B11149096809B1096A08470220704737
:1028B00021B10D4A12680AB1526A104702207047CE
:1028C0000949096809B10968084702207047C046EC
:1028D00022B1054B1B680BB19B691847022070475A
:1028E0000149086000207047247A0030F0B5436841
:1028F0000F221C4694434D680122AB4220D18A68C6
:1029000081680025002C284609D0002005464E5934
:102910005759774038432D1DA542F8D325469D428F
:102920000BD25B1B521949190C7815786540284366
:102930005B1E521C491C002BF6D141420143CA0FB9
:102940001046F0BDF0B503AF83B06E4600220224FE
:10295000724BC1B331600023DA4302240028736054
:1029600008D1474800684749B1FBF0F14A1C42438F
:1029700000231C4645480068C11D0725A9436D4634
:10298000B5606D466D1AAD4682B06946086028464E
:1029900003F04AFD02B00028B068726810D12846E2
:1029A000316803F0CDFD0446020C5C48044206D1B8
:1029B0003748016819B10720154688472A46B0688C
:1029C000854656490B461C4010042043FC1F053C1D
:1029D000A546F0BDF0B581B005460224C8B103F0AC
:1029E0001DFD064603F012FD274F386003F006FD7B
:1029F00023490860386840F22711B1FBF0F1491C07
:102A000041432248016026B9214805600024204640
:102A1000A847204601B0F0BD70B582B0034602243D
:102A20005AB3906848B30024E54302243BB9144BE1
:102A30001B68144CB4FBF3F4651C5D430024124B7B
:102A40001B6816685268521EB2FBF3F2521C5A43BE
:102A5000B24212D80D4B1B686E4632606918CA1814
:102A600000252B4603F0E0FC38B90948016800292D
:102A70002C4602D0042088470024204602B070BDB6
:102A8000347A0030FFFFFF03307A00302C7A0030B8
:102A9000287A0030F0B5A1B00446002602201CB30D
:102AA00000261F961E961EA81A4D0822294603F0DE
:102AB00035FDC0B91EAF384603F0CAFD01900420B1
:102AC000384303F0C5FD02280DD102A87021FEF79E
:102AD00089F911480199814205D102A8702229463D
:102AE00003F01CFD28B1042081B23004084321B05A
:102AF000F0BD02A8214603F07BFD060C0749084201
:102B0000F2D10F48016800200029EDD00620884747
:102B10000020E9E700200210D4B3515AFFFF000063
:102B2000B0B5044603F0F2FC022530B90448046055
:102B3000002514B100252846A0472846B0BDC04650
:102B400030390030F0B583B002920F4606460620B9
:102B500005F010F81C494D1C80B17C68BB68726898
:102B6000B168029EB6686F4650C704F039FFFF2176
:102B7000084203D1202002994860134D284603B033
:102B8000F0BDC046F0B583B004460F4D6E1C016821
:102B9000202911D3A06804F04DF968B90B486946A3
:102BA0000A46C8C8C8C21020606020462246FFF707
:102BB000C9FF0646A84204D02168A068FEF710F9B4
:102BC0003546284603B0F0BD00004355BC900110C7
:102BD00010B501210A0411480368134201D0104BBB
:102BE0000BE003680322134201D00E4B05E003689B
:102BF00040F20032134205D00B4B1C880C431C8062
:102C0000026010BD0468032292051442F9D06302E9
:102C1000064BF2D402212402EFD4F1E70420035042
:102C2000723600306C3600306E3600307036003050
:102C3000FEE7F0B500231C460125A5400D4207D054
:102C400015469D4003269E400768B7432F43076003
:102C50009B1C641C102CEFD1F0BD80B500F0B6FEBB
:102C6000FDF7BAFAFEE7000010B5144942184458BF
:102C700001218B071C4207D0114A805809040842E1
:102C800017D0DB48002116E012681A4214D140F632
:102C90002002815880231943815009494158012459
:102CA00024040C40210CF54C217284589C43845020
:102CB00002E0F24801210172084610BD2808000018
:102CC0002C080000F0B585B00446EC4E726809216E
:102CD00001AB00F075FB3068C11E384D0198012929
:102CE0002DD8800F032839D372680721002520468C
:102CF0002B4600F005FB40F20840324F2750324887
:102D00002E492150082120462A4600F093FB002836
:102D100052D107210022204600F0C6FB40F62001D8
:102D2000625840200243625061180A680242FCD196
:102D3000D42038584108F0603161204D3AE0800FCE
:102D4000029822D03F2109040004084001A94989C2
:102D5000014348024019401C410029E00398C10B7F
:102D600007220A4004219140029A9300144C1C400F
:102D7000800F2043401C4843110C0F220A40904012
:102D8000810A400AF060316114E00399CA0B0723FD
:102D9000134004229A408300094C1C40890F2143B0
:102DA000491C5143000C0F2202409140880A490AF5
:102DB000F1603061681C706105B0F0BDFF0100007A
:102DC000FC0F00006034003038080000F0B589B016
:102DD000044640F2001540F200112C3100F06AFC6C
:102DE00040F62002A15820200143A150A118A2586A
:102DF000024207D0C54A127A002A00D189E00A6847
:102E00000242FCD1002120460A4600F04DFB41F26F
:102E1000000001E00898401E089008980028F9D1A9
:102E200074480126067074480290029B40F200121A
:102E300055320821204600F063FA08900898B8B38C
:102E4000002120460A4600F02FFB089502E0089872
:102E5000401E089008980028F9D1029B37210025D0
:102E600020462A4600F04CFA08900898022849D1DA
:102E70000021204640F200150F460A4600F014FBE0
:102E8000089502E00898401E089008980028F9D19B
:102E90005A4801250570029B5A4A2046294600F0EF
:102EA0002FFA022837D1994807609748401C9DE0C7
:102EB000029B37210022204600F022FA4F4806707C
:102EC000029B29214F4A204600F01AFA40F63000B2
:102ED00025182058F7050EE0029B372100222046D6
:102EE00000F00EFA45480670029B29212046454A0B
:102EF00000F006FA28683842EED0800D30400221FA
:102F00000A1A4AE0089800B3F7480560F548401DE2
:102F10006CE0F4486AE0019640F6300160586618AB
:102F20000095ED052842354F09D101213970029BEA
:102F30002046344A00F0E4F930682842F5D0800D8C
:102F400000990840C21C019E27E02C480670029B95
:102F500029212B4A204600F0D3F940F630003246B2
:102F6000261820581546D7050222384201D02E4691
:102F700013E00192029B37210022204600F0C0F9A5
:102F80001E480570029B292120461D4A00F0B8F911
:102F900030683842EED02E46019AD34F3A60022173
:102FA000002203AB204600F00BFA3868C01E01284F
:102FB0000AD835040321002320462A4600F0A0F950
:102FC000079048B97D6010E0032100222046134697
:102FD00000F096F9079008B1079807E040F6300036
:102FE00020580002084901407960002009B0F0BD76
:102FF000403400305C340030FFFF0F00E0790030D7
:103000000080FF000080FF400000FFFFF0B581B0AE
:103010000091044640F20040022626502018016824
:103020003142FCD10127076040F600000321215006
:10303000251828683842FCD1DD481821FDF7D2FE5A
:103040002E600F482158BB070A461A439943009B3C
:103050009B0500D50A462250215840F200120A432F
:10306000225040F62001625844F2000002436250B0
:1030700061180A680242FCD101B0F0BD4034003052
:1030800028080000B0B504461E480021215040F633
:10309000200021580F221206914321502158092265
:1030A00012060A4322502158FF2212049143215054
:1030B000215801252A040A432250215848F20002CF
:1030C000914321502046FFF7CFFD48B12046FFF73E
:1030D0007DFE88B9F2480068032803D10D4902E05B
:1030E000EE48B0BD0A4900F0E5FA2046FFF7EAFDD8
:1030F000204600F001FA00B1B0BD0748056000208D
:10310000B0BDC046040800001001FFFF403400308D
:10311000A8610000204E000058340030F0B58BB09C
:1031200017460D46069000200A90F248C61C0593EB
:103130005BB1EF48426807210024069E30462346D3
:1031400000F0DEF8079018B1079E30460BB0F0BDD6
:103150003B460495029440F620003518D1483218B9
:10316000286840273843286028683842FCD1106816
:1031700080242042F4D05D485D493150DC4800682D
:103180000128039202D0042800D05B02D6483350B5
:1031900040F2084004993150FF2105980491B0FB9A
:1031A000F1F000900890089AAAB3D148027A534BE4
:1031B0000192029818702E684F48064009960498AC
:1031C00006040999314309910A99099E19B104210C
:1031D0000E432E6004E0474806432E6001210A9109
:1031E000197821B9197811B9002AF9D136E0C14A04
:1031F000961D039B196804200142A6D0D61D1868AD
:1032000008210842A1D00898401E0890089800287C
:10321000019A3A4BCDD10498009941430598401A40
:10322000089008980028039B36D03449029808700B
:10323000286843F600729043099004980004099AA4
:103240008243099208980004099A024309920A9A53
:1032500009982AB104221043286006E0A54E74E7BD
:10326000244A1043286001200A9008780028A14AC7
:1032700005D19F48007A90B308780028FCD0961DAD
:10328000039B18680421084200D15EE7D61D186828
:103290000821084200D158E70C21002206981E465A
:1032A000134600F02DF83146924A961D002800D0B2
:1032B0004BE728683843286028683842FCD1086802
:1032C0002042F6D0072100260698324600F0ECF89E
:1032D00028683843286028683842FCD135E716460C
:1032E00033E7C0461001FFFF4034003038080000CB
:1032F000FF01000007120000FFC0FFFFE17900306E
:10330000B0B5794C025140F620028458274D254033
:103310000902294303240C43845081188458022253
:10332000144053B184B1DB43DE4C247A5B1C30D0B3
:103330006CB30D681542F9D106E02CB1D94B1B7A5C
:103340002BB30B681342FCD11A490A78012A0BD11E
:10335000194A8258D2B2552A06D040F63002825815
:103360000F231340012B1BD1144A117829B10021DE
:103370001170CD4A0223835016E0CB4942585D4874
:10338000801D042300211A4200D00846B0BD5949CF
:103390000AE0086844F2000202430A60022103E0E6
:1033A00000200870534909310846B0BDFCC0FFFF3A
:1033B000403400305C34003034080000E0790030E4
:1033C00070B585B0484C025140F620040259184DA2
:1033D00015400902294311220A43025102190559D5
:1033E00044491024254205D0AE4D2D7AEDB1156823
:1033F0002542FCD1AC4A8258891D0424224214D0B3
:10340000002142586C466250091D1429F9D16846C2
:10341000001D0021009C0A4685582E0E24023443CC
:103420009C50121D102A2C46F6D1084605B070BDDE
:10343000EEC0FFFF10B52C4BC25040F62003C2581F
:10344000154C14400902214307220A43C250C218F6
:10345000C458284902231C4205D0924C247AC4B196
:1034600014681C42FCD1146804231C4205D08D4C06
:10347000247A74B114681C42FCD18B4C0219045993
:10348000881D1C4206D01268C81D082300211A425C
:1034900000D0084610BDC046F8C0FFFF1001FFFF76
:1034A000403400302C08000010B581B00023009398
:1034B0000D4BC25040F62003C2580C4C14400A0277
:1034C000224301210A43C250C218C058084207D003
:1034D0007448007A074B00B9009314680C42FAD183
:1034E000009801B010BDC04624080000FEC0FFFFD8
:1034F000403400301001FFFFF0B583B00446694846
:10350000426800230293072520462946FFF7F8FE6C
:10351000029010B1029803B0F0BD2B4640F6200097
:1035200026186148019424183068402738433060D9
:1035300030683842FCD1206880252842F4D05948B0
:103540000068401E032800D98BE0810001A25118B9
:103550008F46C04600F006B800F03AB800F064B8F4
:1035600000F067B840F20840974C019D2C509748F6
:103570002B504C484268372100232846FFF7C0FEF5
:1035800002900028C6D1332100222846FFF752FFBF
:1035900002900028BED120780F2101400F2908D1C8
:1035A000284600F0D1F80290029810B9654900F061
:1035B00081F8F0484268372100232846FFF7A0FE33
:1035C00002900028A6D1062102220023284626E0E8
:1035D00040F208407C49019C2150E8482350E54DC9
:1035E0006A68372100232046FFF78AFE02900028F0
:1035F00090D1332100222046FFF71CFF02900028C3
:1036000088D16A68372100232046FFF779FE0290AF
:10361000002800D07EE70621022200232046FFF783
:103620006FFE0290C0B175E7306848F20001884330
:10363000306006211D4A00230198FFF761FE0290C9
:10364000002800D066E73068384330603068384280
:10365000FCD120682842F6D0306848F200010143CE
:103660003160C74C621C10210023019D2846FFF7E2
:1036700047FE0290002800D04CE7C0482C5007219C
:1036800000222846FFF710FF30683843306030686A
:103690003842FCD10648295801220A432A5000200A
:1036A00039E7C046403400302C0800000001B70361
:1036B00028080000B0B50C4601200507FCF770FE95
:1036C000284239D10F20C0431C4D2858010D03203A
:1036D0000840012805D0022806D0032807D1184841
:1036E0000BE005F05FFB04E005F062FB01E005F094
:1036F00065FB40F2E831B0FBF1F012498C4200D397
:103700000C46B0FBF4F25443001B511C00B91146A7
:1037100040F20012FF2903D8002000290A4603D0F6
:10372000FF20000611060818FF2109062A688A43AF
:103730002A60296801432960B0BDC04620020040CC
:10374000E02E000050C30000F0B581B00446002612
:10375000009640F208411C486050884D3F27675151
:1037600006211B4A2046FFF765FE0090611940F2D2
:103770000842A218012510B1284601B0F0BD124838
:103780000346008840BA0028F6D0988B40BA00283B
:10379000F2D113600F6006210E4A20461F46FFF744
:1037A00049FE00900028E7D13B4640F620016258D0
:1037B00040200243625061180A680242FCD1188816
:1037C00040BA351A4541D7E7603400303808000068
:1037D00001FFFF0001FFFF80F0B589B01C460F46D6
:1037E000002108916249C91C002B00D1BDE0039261
:1037F00060494A680721002605463346FFF780FDE9
:10380000059008B10599B0E03B460496029440F655
:1038100020002F1858482C182A463868402528437D
:10382000386038682842FCD1206880263042F4D0C5
:103830005248534911504F480068012801D00428CC
:1038400001D1039901E0039949024E48115040F219
:10385000084001921350FF210298B0FBF1F0009054
:103860000690069A5AB34348007A0390484A04984F
:1038700010703B684448034007930B0407981843B3
:1038800007900898079B18B1082003433B6004E0A9
:103890003E4803433B6001200890107828B9039804
:1038A000002861D010780028FCD02068022318423C
:1038B0001FD10698401E069006980028D7D1009880
:1038C00041430298401A069006980028019825D096
:1038D0002F49049A0A7006983A682B4B1A40030441
:1038E00013430793089A079B2AB1082213433B60AE
:1038F00006E0236035E0254A13433B60012208922D
:103900000A78002A019805D11A4A127A62B30A7815
:10391000002AFCD021680222114221D1022121601B
:103920000C2100221346FFF7EBFC019B1049891D77
:10393000D8B938682843386038682842FCD12068F4
:103940003042F6D00721002218461446FFF7ACFD9E
:1039500038682843386038682842FCD1214604E0A2
:1039600022600349083100E00149084609B0F0BD72
:103970001001FFFF403400302C0800003808000020
:10398000FF0100002408000080C000FF0B190000A8
:10399000E179003080B505F005FA0749086005F0C7
:1039A00013FA06490860064940180649B0FBF1F0D1
:1039B0000549086080BDC0461C320030203200300E
:1039C00020A1070040420F00183200300148024990
:1039D0000160704708ED00E00000011010B50446DA
:1039E00000201B498C4209DC1D498C4213D01D4923
:1039F0008C4212D01C498C420BD021E015498C42DC
:103A000005D015498C4204D014498C4218D117486E
:103A100004E0174802E00D4800E0164805F0DAF926
:103A200002280AD140F2001004430E48844208D113
:103A300010BC01BC864605F0D3B980000EA1085821
:103A400010BD10BC01BC864605F0D0B90200805EF6
:103A5000FF100540001105400010055000110550F1
:103A60000000054000010540001005400500405FD2
:103A70000400005F0300C05E001BB7000080000070
:103A800000000000000000000000000010270000FF
:103A900000000000001BB700F0B585B0009104469F
:103AA0006C4801A96CC86CC16B4F6C4884420ADC3D
:103AB0007248844215DC754884422AD07448844296
:103AC00022D0744809E06648844212DC6848844287
:103AD0001FD06848844217D06748844221D1714F73
:103AE00017E06748844211D06648844210D0664887
:103AF00006E05C48844209D05B48844208D05B48B9
:103B000084420ED1644F04E0674F02E0644F00E04E
:103B1000624F384605F05EF90646384605F06CF906
:103B2000471C002020630325E560A0681049014080
:103B3000A160012E02D105F035F90290009BABB1D6
:103B4000B00001A90858B0FBF7F158080818B0FBFD
:103B5000F3F0801E020C06D0D8000818B0FBF3F07A
:103B60000009801E01E029070843606205B0F0BD2E
:103B70000FFFF0FFF0B587B01C4602920191054699
:103B8000344803A9CCC8CCC1334E344885420ADC42
:103B90003A48854215DC3D4885422AD03C4885425A
:103BA00022D03C4809E02E48854212DC304885424C
:103BB0001FD03048854217D02F48854223D1394E37
:103BC00017E02F48854211D02E48854210D02E484C
:103BD00006E02448854209D02348854208D023487E
:103BE000854210D12C4E04E02F4E02E02C4E00E016
:103BF0002A4E304605F0EEF80746304605F0FCF850
:103C00000646012F03D105F0CDF8049001270C984A
:103C1000019BC3B1B90003AA5158721CB1FBF2F267
:103C200059085118B1FBF3F1891E1E460B0C06D042
:103C3000F1005118B1FBF6F10909891E02E00322D7
:103C400012071143696202990C430443EC6007B008
:103C5000F0BDC046D4980110103D8057FFFF0650BC
:103C6000FF2F07500030075000400750005007500A
:103C7000000007500010075000200750FF2F07409A
:103C80000030074000400740005007400000074058
:103C90000010074000200740953DEC77143DCC779D
:103CA000933CAC77123C8C77913DA05710B5F74C04
:103CB000204601F007FB04480D4A214610BC08BC11
:103CC0009E4602F0B9BAC046C752011010B5064C64
:103CD000204601F055F80548054A214610BC08BCAD
:103CE0009E4602F0A9BAC0463C7A0030F14D011060
:103CF0000000011080B5E54801F0A4F90021091A7F
:103D0000484180BDE14801F031BAC046F0B583B00A
:103D10000446214FDD4D3E462846314602F042FA28
:103D20008619384670308642F6D3D74DAE4208D257
:103D30001A483118384600F03BF80028224624D1B2
:103D400003E040F2004022183D46AE18AE420FD9C3
:103D500001920294CD4C2F462046394602F022FAB9
:103D6000C719B742F8D30E4887420299019A04D87E
:103D70002846114600F01CF807E00A483A180A489D
:103D80000A4BFCF74BFC0020C0430021091A4141BB
:103D9000084603B0F0BDC0460020021000E0FDEF71
:103DA0000000081000DCFDEF9F9E011000DC050004
:103DB000F0B581B004460F180021C843A74210D9BE
:103DC0000091B24D2846214602F0ECF906462846FD
:103DD0002146324601F074F9341910B9BC42F1D3CE
:103DE000009801B0F0BDC046F0B58DB00590002040
:103DF0000C46002900D193E04A4802F0CDF9024672
:103E00004949B1FBF0F05043081A04D04748FCF789
:103E100005FC30BFFDE700270B9745480C9044F2A6
:103E20000000B0FBF2F1099251430A91A268E068E8
:103E30001346034308340794002B01976DD0099B68
:103E40005B1E02930024E34303933A4F25460494F8
:103E5000234636E00B9800285BD002990818B0FB87
:103E6000F2F000275043089017D0069954182E48B6
:103E70000E1800250C98411972192A48099B01F067
:103E800093F9074660190799096804F04DF90998F4
:103E90002D1817B908988542ECD3069D0898451946
:103EA000DFBB07980268406801210023AA4200D9BD
:103EB00019461B1A434100B1194671BB00230A99E8
:103EC0001C4F039C3C600695521B049E76410124C6
:103ED0008A42254600D8049D761E984100B90446C2
:103EE00000B1254605B911460B910AAA0598069915
:103EF000FEF7EEFC3968104A104207D1481C099AB7
:103F000005D130BF3968481CFBD000E0099A04296C
:103F1000A0D00AA0FCF7E0FD039F0198C01B7841E8
:103F20000DB0F0BD88360030002402104C9E011008
:103F30003839003078320030FFFF00005B455252C4
:103F4000205D2041524D5F5543505F5265616420B2
:103F500072657475726E6564203020627974657361
:103F60000D00000070B50C4606468868FFF7CEFECF
:103F7000002588B1204600F031F968B1304621466D
:103F8000FFF732FF40B105A0FCF7A6FD204600F088
:103F900017F800210D1A4541284670BD5B424F4F6E
:103FA000545D20566572696679206E65772061637D
:103FB00074697665206669726D776172653A0D0085
:103FC000F0B5A7B004460125002859D0204600F0DE
:103FD000EDF8002854D0A068E16801432646083671
:103FE000022500294CD002940CAD284603F073FE44
:103FF00000212846019103F0B7FE04A82021FCF718
:10400000F1FE306810B30396054601E0F5B1306863
:1040100044F200018D422F4601D344F200071A49B1
:10402000491B0A189948AA4E31463B4601F02AF826
:1040300004460CA831463A4603F012FFED1B039EDE
:104040003168481B04F070F8002CDFD00CAC04ADD4
:104050002046294603F0A9FD204603F037FE029CC6
:104060001034202220462946FCF7F6FD0028019D49
:1040700006D0204604F090F804A804F08DF801253D
:10408000284627B0F0BDC046002402108836003014
:10409000F0B5A3B00D4602900020002900D17AE0CF
:1040A0003E4820A91CC81CC105AE304603F013FED3
:1040B0000021304603F058FEA968E8680A4602432A
:1040C000009508350195002A4BD0002344F20002E8
:1040D000334D1E46039304931BE0219AF2B32299B9
:1040E00005A803F0BDFE21988619019F3968304666
:1040F00004F01AF878680024221A42413968012332
:10410000B14200D9234600B1134653BB00220492AA
:10411000209A039CE3432B60891B234663410127BC
:1041200091423C4600D8039C5B1E049B984100B919
:10413000074600B13C4604B90A46219220AA0298DB
:104140003146FEF7C5FB2968164A104202D003E04B
:1041500030BF2968481CFBD00429BED012A0FCF750
:10416000BBFC05AD5A4E2846314603F01EFD2846DD
:1041700003F0ACFD009C1034202220463146FCF7B1
:104180006BFD0146012031B1204604F005F850488E
:1041900004F002F8002023B0F0BDC046C890011022
:1041A00078320030FFFF00000D000000B0B50024A1
:1041B00090B10024E143ED4D2960FEF771FBEC491D
:1041C000084209D100E030BF2868411CFBD0062816
:1041D00001D1012400E000242046B0BDF0B585B037
:1041E0000146002000294ED00091284E304601F0B3
:1041F000D3FF05466F35B5FBF0F14143681A0190D6
:10420000234C27463046394601F0CCFFC7192046DB
:1042100070308742F6D31F483A1801982E1A44F29C
:104220000000401C864207D296420DD92A483146EA
:10423000FCF7F4F930BFFDE717A0314644F2000265
:10424000FCF7ECF930BFFDE72148FF223146FCF7CF
:10425000A2FD204802A90A46A8C8A8C2009802F0F8
:1042600015F901460020C24A11420CD10399702968
:1042700009D1064816492246334600F095FF01460B
:104280000020401A484105B0F0BDC04688360030D5
:104290000020021000E0FDEF5B455252205D2048F7
:1042A00065616465722070726F6772616D207369F9
:1042B0007A65202575206269676765722074686178
:1042C0006E206275666665722025640D0A0D0A000F
:1042D00038390030D49001100B9E0110F0B5ADB00C
:1042E0001AA848242146FCF77DFD08AD2846214642
:1042F000FCF778FD78A0FCF7EFFB2846FFF760FE9F
:1043000081490B6800249BB17E490A6882B1C0CB09
:10431000099C6740089D6E403E43083B16B91378E0
:104320005B1C02E01D605C600023137009680C7860
:104330000126022811D090B9022C12D808A81030FA
:1043400003F02AFF099B089A7A48FCF767F9099855
:104350001B9008981A9031460CE06CA007E0032CE3
:1043600004D381480321FCF759F902E072A0FCF75D
:10437000B3FB00210027F8437C4D28600691079687
:104380007140059108AE38463146FEF791FA334642
:1043900030331AAC2146303103912146103102915D
:1043A000083431461031049108362968704A1042A9
:1043B00002D003E030BF2968481CFBD007290FD189
:1043C00001935148006880B10368416809984140F1
:1043D000089A53400B43012103B91946079D08E091
:1043E00064480021FCF71AF95EE00998089A079DD5
:1043F00029461A9B9A422A4600D93A461B9DA84252
:10440000079B00D93B46A84200D01A46002A42D159
:104410000598014301293ED103CE0143083ED1B3A3
:10442000564800273946FCF7F9F808A93846FFF73F
:104430002FFE002846D0049803F0AEFE099B089A90
:104440003C48FCF7EBF832684E480121824200D329
:104450003946706800B139460029079E34D0099961
:104460001B9108991A9122606060029C049D0FCDF7
:104470000FC40FCD0FC4019C039D0FCC0FC5464840
:1044800000252946FCF7CAF81AA92846FFF76AFD55
:1044900000B343480CE038480021FCF7BFF8099B03
:1044A000089A2448FCF7BAF8079E069818B13948CC
:1044B000FCF712FB03E03648FCF70EFB0026304603
:1044C0002DB0F0BD2E488CE72F4800212F4BFCF774
:1044D000A5F8EAE73148EFE75B424F4F545D2041D2
:1044E0006374697665206669726D776172652069AB
:1044F0006E7465677269747920636865636B3A0DE1
:104500000000000034390030E47900305B424F4F46
:10451000545D20416374697665206669726D7761C8
:10452000726520736C6F7420697320656D70747987
:104530000D000000BDA001105B455252205D2041DE
:104540006374697665206669726D7761726520694A
:104550006E7465677269747920636865636B206641
:1045600061696C65640D000058A00110783200305C
:10457000FFFF0000D4A001102DA00110A29F011088
:10458000FC9F011001DC05008CA0011000DC05007F
:10459000A0A10110C0A10110CD9F011050A10110D8
:1045A00070A1011010B504460C480078BFF35F8F6E
:1045B0000121084209D00A48017819B1A14201D06D
:1045C000084810BD0470002010BD044801F036FEFC
:1045D0000028F0D0014801F05BFEECE760360030C7
:1045E000E83800303C01FF80B0B50E4801F084FC93
:1045F0000D480C300021CC430325016859B1001D42
:104600006D1C102DF9D3FBF7D7FE1821016005486A
:1046100001F072FC04E00460024801F06DFC2C46DD
:104620002046B0BD783600302432003082B080B5EC
:1046300082B00593049220B104AA01920348FBF7CB
:10464000E6FF02B080BC01BC02B00047D4330030AA
:104650002649096801B108477047C04636480068D6
:104660000168084734484068016808473248806854
:10467000016808473048C068016808472E4800694B
:10468000016808472C484069016808472A48806942
:10469000016808472848C0690168084710B582B01A
:1046A000044602F061F800212448234A136873B1DC
:1046B000121D001D491C0829F8D302F093F80022AE
:1046C0006846026007480849134602F059FC146026
:1046D000046802F087F8054805490160204602B0E9
:1046E00010BDC04620010180AC9A0110B8380030DE
:1046F000F546011010B582B0044602F035F80021ED
:104700000D480E4A1368A3420ED0121D001D491C0D
:104710000829F7D302F066F80022684602600848CC
:1047200008A1134602F02CFC0021016002B010BC6D
:1047300001BC864602F056B898380030D897011070
:1047400001010180547269656420746F206672658E
:104750006520696E76616C696420435468756E6B80
:10476000456E74727900000010B50C46002022B12D
:104770001C4803F04DFF2070012010BD1C20C043D9
:1047800070471520C043704700207047F0B581B0D6
:1047900014460D464AB1134E27462978304603F099
:1047A000FDFF7F1E6D1C002FF7D1204601B0F0BD2C
:1047B0000120704770B51D46044608480830206047
:1047C0000748006838B9074E304603F035FF3046D9
:1047D000294603F09FFE204670BDC046F8970110A1
:1047E0004C7B0030847A0030FBF731BEF0B581B0ED
:1047F00004463E20205C26463E3620B1206C401CFC
:10480000206400255EE000202064204600F0D4F9FA
:104810000546002856D1E068002856D01421455698
:10482000E06A08B1E9B206E020461830FFF736FF2B
:10483000E062E168097DAA00264B1B689A181064A3
:1048400048B2002808DBC108234A0A401F21014062
:104850000120884021495050606940F20011FEF764
:10486000D5FB6069FEF70EFC0F200705A07C000653
:10487000000F01D032780CE01948016801220029AC
:10488000104600D108461749096801B90A46024096
:1048900032701AB101202064002505E0207A12A1AF
:1048A000FFF7C4FE3278174D207A17A1FFF7BEFE3E
:1048B0002069384201D0606802E00948C068606041
:1048C000211D0860284601B0F0BD13481349DA22C3
:1048D00002F09EFA08ED00E0FCFFFF1F00E100E09F
:1048E00040340030583400304661696C20746F20C9
:1048F000696E697469616C697A6520636172640AC2
:10490000000000005FF0FFFF696E69742063617250
:1049100064203D2025640A00689901107D990110EA
:10492000F0B587B01D46174606910168C96B0D9C0E
:104930006A4654600C9E166004903A4688470146C9
:104940007E4A501C00295DD03E200499085C002856
:10495000104657D005950321069D2A460A40784BFC
:104960003046184010430F2212072A4001239B07AC
:104970005B1BB34211D309078A420ED168B9780A8A
:104980000599CA050243700AE30503430498406988
:104990000699FEF7C3FBA0BB34E03146214300205B
:1049A0000029059A3B462DD00393580A0592D2055B
:1049B0000243700AE1050143600A084360494D1C47
:1049C00000B935466B0A049840695E4F3946FEF7D8
:1049D000A5FBB0B93946069F38462A46FCF78CF944
:1049E0000020761B01464141491E84413146214346
:1049F000039B5B19059A42417F1906970029D3D181
:104A000000E0DE4807B0F0BD017270473E21415C16
:104A1000002001B949487047B0B504463E20215CEA
:104A200025463E35002059B1206C022801D3401E96
:104A300006E0E06810B1406804F0E4F90020287056
:104A400020640020B0BD0000F0B587B01F461446BA
:104A50000D460168096C0D9E6A4656600C9B0493D6
:104A60001360059022463B46884733460146334A49
:104A7000501C00295FD03E200599085C0028104694
:104A800059D006932646039703272A463A402C49D5
:104A9000049C2046084010430F2212072A4001239D
:104AA0009B0729465B1B2546A34211D33B079A422D
:104AB0000ED168B9700A039AD2050243680A069BB0
:104AC000DB05034305984069FEF786FE90BB32E0A4
:104AD0002F462A46069B1A430020002A039C2AD010
:104AE000780ADA0502430693580A1043144A551C03
:104AF00000B93D4613482A460491FCF7FDF8700AB8
:104B0000E20502436B0A059840690E49FEF764FE10
:104B100080B900207F1B01464141491E069B83410D
:104B20003946194376194441049A5219002911460D
:104B3000D6D100E0914807B0F0BDC04674ECFFFF4D
:104B4000FF010000983600304169184A88188B58D8
:104B50000122134205D0026040F600000B581343B7
:104B60000B50134BC818C958114203D011490122E8
:104B70000A700260026840F200110A4200D001602F
:104B800001680222114201D002210160026842F252
:104B900000010A4200D00160026841F200010A42AD
:104BA00002D002680A4302607047C046080800004D
:104BB0002C080000E1790030F0B581B00446007A9D
:104BC00051A1FFF733FD3020205E594903F03EFA32
:104BD00000903220205E574903F038FA0646342010
:104BE000205E554903F032FA07463620205E5349CD
:104BF00003F02CFA05460098314603F007FA064602
:104C00003846294603F002FA0146304603F0FEF921
:104C100000903820205E4A4903F018FA06463A20F0
:104C2000205E484903F012FA07463C20205E4649C0
:104C300003F00CFA05463046394603F0E7F92946F9
:104C400003F0E4F90146009803F0E0F90546401C42
:104C500044D03E49284601F0F9FDE060002845D0E7
:104C60000068A84248D13020205E314903F026FA7E
:104C70003220205E2F4903F021FA3420205E2E4995
:104C800003F01CFA3620205E2C4903F017FA382076
:104C9000205E2B4903F012FA3A20205E294903F0E6
:104CA0000DFA3C20205E284903F008FA31482E46D0
:104CB000064004F0ADF825616661E068006904F023
:104CC000ADF8E268121D07CA04F0AEF8E06840686B
:104CD00004F0B0F804F0B4F8002005E02068C26CDD
:104CE000012120469047254801B0F0BD22482049C7
:104CF00040F2D81202F08CF840F2D810421C14A0F6
:104D00001B4902F085F8C0465344204D50462053BD
:104D1000657474696E67202620456E61626C65203B
:104D2000534420495020436C6F636B0A000000001D
:104D30004C9201107092011094920110B8920110DF
:104D40002892011004920110E0910110A097011027
:104D50005F7364685F6D6F64696E69742D3E6D6F1B
:104D6000646E616D65203D3D2073645F6D6F64000E
:104D70007D990110E0FF0FFF689901105FF0FFFFC0
:104D8000002141600172C16041610162114A4262C9
:104D90008162114A8261C162104A82871D4B0833C9
:104DA0000360CB4303611346F53303861346F633A2
:104DB00043861346F73383861346F833C386134678
:104DC000FA330387F9324287C0613E22815401647D
:104DD0007047C046494B0110C95201100D03000035
:104DE00080B500F005F880BC02BC8E4601F0DEB94B
:104DF00010B504460748083020603E20205C10B102
:104E00002046FFF709FEE06AFFF722FC0020E0627F
:104E1000204610BD549801101520C043704718203B
:104E2000C243002001B9104670471520C0437047A7
:104E30000168896A08470020704701680B690021F2
:104E40000122184701688969084703681B691847E8
:104E5000704701680B6900210A4618471520C043B6
:104E600070470020704700207047704770B50546B6
:104E700000240F281ADCA80017490C580E18022D20
:104E800014DC601C12D1284600F02CF8044660B9EE
:104E9000284600F029F8044638B910480078BFF3D6
:104EA0005F8F0F4C0121084202D03460204670BD54
:104EB0000A4801F0C3F90028F7D040F20C10411C59
:104EC000E1204302064C204640F20C12FFF772FC30
:104ED000024801F0DDF9E8E72432003064360030A2
:104EE000EC3800300020704700207047007B70478E
:104EF000F0B581B00E460446174800F0FDFF174894
:104F000005680DE0AF6857B13846FBF7D3FEB042F5
:104F100005D1384621463246FBF79EFE88B16D68C2
:104F2000002DEFD1072E05D10DA007222146FBF75A
:104F300093FE50B1084800F0DFFF0025284601B07D
:104F4000F0BD054800F0D8FFF8E7034800F0D4FFB3
:104F500005480568F2E7C046C0380030BC3800306C
:104F600064656661756C7400D0380030B0B5054674
:104F70004068002438B1FFF7B9FF012803D1686801
:104F8000041F00B904462046B0BDB0B505464068D0
:104F9000002430B1FFF7AAFF18B96868041F00B9F0
:104FA00004462046B0BD4168012001B9084670475B
:104FB00080B54168002031B10846FFF797FF0146F0
:104FC0000020401A484180BD0068704770B50E4609
:104FD00004460025056045600EA13046FBF72CFE17
:104FE000301802E02F2A06D06D1C41192160425D65
:104FF000002AF7D101E0491C21602DB12946FFF7B5
:1050000077FF6060204670BD03A006A12A2201F050
:10501000FFFEC0462F0000006C656E20213D203051
:10502000000000002E5C6D6265642D6F735C706C17
:105030006174666F726D5C46696C65506174682E50
:105040006370700070B504469D4D284600F054FF13
:1050500002F0FEFA02F028FB204603F0F7FE0646B7
:1050600002F074FB02F04CFB204603F0F5FE01F069
:105070009FF8E060284600F03FFF0020C04306B9DB
:10508000304670BDF0B581B01D4616460F46044649
:105090008B4800F031FF02F0DBFA02F005FB2046FE
:1050A00031463A462B4601F0CAFB044602F04EFB5D
:1050B00002F026FB824800F01FFF204601B0F0BD41
:1050C000F0B583B015460E460446501802902046AF
:1050D00003F0C8FE0746204603F0CAFE0299C01935
:1050E0000027FA4381423DD80CD220460194144651
:1050F00003F0C4FE2246019C029BB3FBF0F1414346
:10510000581A2FD16E4800F0F7FE3DB30194029675
:1051100000950126354602F09BFA02F0C5FA019887
:10512000029903F0B1FE07460028344600D13C4600
:1051300002F00CFB02F0E4FA681C0F2D02D8002CE0
:105140000546E8D10198029E314603F097FE861984
:10515000009D2D1A01D0002FD9D06742584800F089
:10516000CBFE3A46104603B0F0BDC046B0B504468B
:10517000534800F0C1FE02F06BFA02F095FA2046A7
:1051800003F088FE0021CD4300B9054602F0DEFAA7
:1051900002F0B6FAE06808B101F006F8484800F0FD
:1051A000ABFE2846B0BDC046F0B589B003931446A7
:1051B0000F46054603F050FEB4FBF0F10190414369
:1051C0000894661A284603F04DFE044607952846C3
:1051D00003F04EFE01460025E8430497002F6CD0F3
:1051E000002E6AD10919039C089EA2198A4264D82C
:1051F000334800F081FE002C5BD0079D28463146E5
:1052000003F03CFEB6FBF0F14143711A401A8442B0
:105210000394019F00D304460320049A114681435E
:105220009142089609D1BC4207D3B4FBF7F078430A
:10523000029005900498069014E0A7423A4600D3E5
:105240002246E86804990292FBF756FDBC4206D25A
:10525000029AB91AE8688018FF22FBF79CFDE868FB
:10526000069005970124264602F0F2F902F01CFA96
:1052700007980899069A059B03F012FE0746002836
:10528000254600D13D4602F061FA02F039FA701C61
:105290000F2E02D8002D0646E6D104980299401838
:1052A0000490089E8E19039C641A01D0002FA4D08C
:1052B0006D42034800F020FE284609B0F0BDC0460C
:1052C000D838003070477047B0B5436883B1C268C2
:1052D000056901242C402146114349B181686810B9
:1052E00018180CB103689A58B0BC08BC9E46104709
:1052F000B0BD0000F0B5ADB00C9317460A460646A7
:10530000806B80210A910DAC092802D380B20A90EB
:10531000F46BD0003518686A24350B92C219706B93
:1053200008232146FFF7AEFE0621C9438B1D08B1B5
:10533000184670E00595329D6088984A02400694B0
:10534000208800B2002859DB04911046083080B252
:105350000C994018B16988425AD2019302950120F4
:105360000B99401AC0B2C000079630182430039041
:105370000699083108370825894B16460B970A9875
:10538000441BA0B2B2B2824200D8344600271C426D
:10539000079B059809D000680B9A8218586BA7B232
:1053A0003B46FFF76FFE079BA0BB08940996ED19DB
:1053B000039800680C9E8219586B069C21462B4668
:1053C000FFF7F2FE01460498401D21BBAE190C9672
:1053D0000B98C0190746099E0898361A0025704B8D
:1053E0001E422146CAD10798806B0C99491EB1FB19
:1053F000F0F1491C41430298016007E0B06B0C9941
:10540000491EB1FBF0F1491C41432960002002E034
:10541000049800E001982DB0F0BDC046F0B5AFB0E3
:105420000A930446379F01253D60C8002618706A1C
:1054300024360B928218606B0DA90823FFF722FE19
:105440000021CA43002800D0A2E0079605970894DF
:105450003B9802903A980C9039980990389B36986E
:105460000490359E349800900021B44C03920DAF07
:105470007F5C5740082278082F407F4227404740F2
:10548000521EF8D1491C04293A46F0D10020019659
:1054900030800DA80188414E0A4632401A804FF2F2
:1054A00000020A4009990A8032464688300B0C995E
:1054B00008701888511E89B2884203D00899C9899A
:1054C000884262D216400B9802460832802106912B
:1054D0000FA90C910499A1B90A998E4206910099DD
:1054E0000C910ED901990E808019C01D0899896B05
:1054F000B0FBF1F0401C484302990860039A521F28
:1055000046E076B3079BB0B20699814200D331469C
:1055100009910B968EB218680A9282180898406B0F
:105520000C993346FFF7AEFDA8BB099B180410D0B9
:10553000002039460C9A175C4F4008217A082F400A
:105540007F4227405740491EF8D1401CB04239469F
:10555000F0D10A9A92190B9EF61A11480642079B3F
:10556000D1D10E98B84210D10DA840880B490840FF
:1055700001990880501E0899896BB0FBF1F0401C1E
:10558000484302990860002202E000220598026068
:1055900010462FB0F0BD039AFAE7C046FF0F000097
:1055A000FFFF000010B50D480078BFF35F8F0121A9
:1055B000084201D00A4810BD084800F03FFE00280C
:1055C000F8D0074C204600F04DFC0648064A21461C
:1055D00000F032FE014800F05BFEEBE76836003079
:1055E000F0380030A95E011000000110F0B58BB05A
:1055F000069204910790109C1C4308A804801199FE
:105600000903129D29434180002309930120C143CE
:1056100003914E1C4949149A0192139F02E008AC71
:10562000E45C1646E2B27240082456080240524238
:105630000A407240641EF8D15B1C042BEFD17DB18F
:105640000023FC5C544008226608044064420C407D
:105650007440521EF8D15B1CAB422246F1D100E0EF
:1056600014460994079B986B00210822059208AE06
:10567000092833D3DE6B0998010E089AF171010CE9
:10568000B171010A71713071100EF070100CB070B0
:10569000100A70703270002015B3089809993171A2
:1056A00030700A0EF2710A0CB271090A7171010EA2
:1056B000F170010CB170000A70709C6B083CAC4238
:1056C00000D32C463046083039462246FBF714FBFF
:1056D0002D1B029408340594079B03E0029101E01E
:1056E0000290054606990498C0001C18606A24348C
:1056F0004218586B3146059E3346FFF755FD08B1F9
:10570000039819E00698361865B102983918206890
:1057100082190798406B2B46FFF746FD0028039837
:105720000AD176190798806B711EB1FBF0F1491C04
:1057300041430198016000200BB0F0BD2083B8ED1B
:10574000F0B5A1B014460546826922608369002045
:10575000802B2FD3803A2260C8002E18706A24361E
:105760008218686B01A98023FFF78CFC10BB00270F
:10577000802101A842180020C343D35C4A1EFF2B9E
:1057800014D1002A1146F4D17F1CA969C9098F429E
:1057900010D220688038206031680A18686B01A92F
:1057A0008023FFF76FFC0028E2D003E02068401858
:1057B0002060002021B0F0BDF0B58FB00E46856BA3
:1057C0000F210991B1FBF5F14C1C6C434C49491C6C
:1057D0008E4231D048F200010A422DD1089215992B
:1057E0000B91149F017B0A91014622460CA86C463E
:1057F0000025256007936360A7600B9BE360206131
:1058000001240A98201A0F46C1B23846154633467D
:10581000FFF7ECFE002870D1387B201A0899490B5D
:1058200002220A4007990907114329430143386AB4
:10583000B20081500C9C38461699089100290794B3
:105840002FD0036A00273C460690D9590A462D4DB1
:105850002A40099D2D070D400B9501250E460A95FE
:105860002E4006250D40BAB1017B8E4214D10CABFF
:1058700069460B603146079BFFF73CFDE8BB0A9881
:105880004640079805430B980543354306990B6A34
:10589000DD510C98079008463F1D641C08998C4206
:1058A000D3D3018A491C0182077B06460DAB1980C0
:1058B000C189598000220E920CA96C4608252260ED
:1058C0006260A560E36021610124E01BC1B20C4865
:1058D00083B23046FFF78AFE78B907987061307B53
:1058E000211A3173C0003018416A826A706BFFF769
:1058F000E7FB0146E04301B908460FB0F0BDC046E2
:10590000FE0F0000F8FFFF0FF0B583B004460290D1
:10591000406B00F045FC0546606B00F03FFC06461E
:105920002046243028499CC99CC0029B986A50B3E9
:105930001EB3002701973C460097586B294600F09C
:1059400031FC029BF9005918E20704D14A6AAA42C5
:1059500001D0009C0BE0019A8218896A012401920F
:105960008A4204D17F1C0024022F019423D0361ACE
:105970004519002EE1D1022F1DD014A01A4940F282
:105980001E1201F045FA002018639862741901266E
:10599000AC4212D9586B611E00F004FC029BF1006E
:1059A00059188A6A12188A62120B241A0AB14C62B8
:1059B000761E002EECDA03B0F0BD40F21E120A3261
:1059C0000AA0094901F024FA64320030617265616D
:1059D000203D3D204E5653544F52455F4E554D5F2E
:1059E0004152454153000000F8990110666C617303
:1059F000685F61646472203E20666C6173685F73E7
:105A0000746172745F61646472000000B0B582B04A
:105A100000246D466C60069C2C6000F0E1F902B039
:105A2000B0BD0000F0B59BB007464068002800D02C
:105A300058E10120FEF7B6FDBA49884200D169E17C
:105A400038460830012100F086FE012800D0D1E060
:105A50000124204600F0CEFB00210D91C943B9611D
:105A6000F86110200A9000F0C5FBFFF72BFC78636B
:105A7000FFF7E8FA786B00F08FFB01460822082850
:105A800000D810460994B863092902D300F090FBAE
:105A9000F8633846FFF738FF3E4624363846143060
:105AA0000B9011AB16AD0D9A18A8002181542960F6
:105AB0000C910E9319807068B969884200D308462A
:105AC000B86138460D92D7B2044639462A46FFF7E8
:105AD00037FE002800D008E12868C0B315A8694641
